{
  "_format": "hh-sol-artifact-1",
  "contractName": "HelloWorld",
  "sourceName": "contracts/HelloWorld.sol",
  "abi": [
    {
      "inputs": [
        {
          "internalType": "string",
          "name": "_message",
          "type": "string"
        }
      ],
      "stateMutability": "nonpayable",
      "type": "constructor"
    },
    {
      "inputs": [],
      "name": "acceptOwnership",
      "outputs": [],
      "stateMutability": "nonpayable",
      "type": "function"
    },
    {
      "inputs": [
        {
          "internalType": "string",
          "name": "_newMessage",
          "type": "string"
        }
      ],
      "name": "changeMessage",
      "outputs": [],
      "stateMutability": "nonpayable",
      "type": "function"
    },
    {
      "inputs": [],
      "name": "message",
      "outputs": [
        {
          "internalType": "string",
          "name": "",
          "type": "string"
        }
      ],
      "stateMutability": "view",
      "type": "function"
    },
    {
      "inputs": [],
      "name": "newOwner",
      "outputs": [
        {
          "internalType": "address",
          "name": "",
          "type": "address"
        }
      ],
      "stateMutability": "view",
      "type": "function"
    },
    {
      "inputs": [],
      "name": "owner",
      "outputs": [
        {
          "internalType": "address",
          "name": "",
          "type": "address"
        }
      ],
      "stateMutability": "view",
      "type": "function"
    },
    {
      "inputs": [
        {
          "internalType": "address",
          "name": "_newOwner",
          "type": "address"
        }
      ],
      "name": "transferOwnership",
      "outputs": [],
      "stateMutability": "nonpayable",
      "type": "function"
    }
  ],
  "bytecode": "0x60806040523480156200001157600080fd5b5060405162000cfd38038062000cfd8339818101604052810190620000379190620001ba565b33600160006101000a81548173ffffffffffffffffffffffffffffffffffffffff021916908373ffffffffffffffffffffffffffffffffffffffff16021790555080600090805190602001906200009092919062000098565b50506200036f565b828054620000a69062000294565b90600052602060002090601f016020900481019282620000ca576000855562000116565b82601f10620000e557805160ff191683800117855562000116565b8280016001018555821562000116579182015b8281111562000115578251825591602001919060010190620000f8565b5b50905062000125919062000129565b5090565b5b80821115620001445760008160009055506001016200012a565b5090565b60006200015f620001598462000228565b620001ff565b9050828152602081018484840111156200017857600080fd5b620001858482856200025e565b509392505050565b600082601f8301126200019f57600080fd5b8151620001b184826020860162000148565b91505092915050565b600060208284031215620001cd57600080fd5b600082015167ffffffffffffffff811115620001e857600080fd5b620001f6848285016200018d565b91505092915050565b60006200020b6200021e565b9050620002198282620002ca565b919050565b6000604051905090565b600067ffffffffffffffff8211156200024657620002456200032f565b5b62000251826200035e565b9050602081019050919050565b60005b838110156200027e57808201518184015260208101905062000261565b838111156200028e576000848401525b50505050565b60006002820490506001821680620002ad57607f821691505b60208210811415620002c457620002c362000300565b5b50919050565b620002d5826200035e565b810181811067ffffffffffffffff82111715620002f757620002f66200032f565b5b80604052505050565b7f4e487b7100000000000000000000000000000000000000000000000000000000600052602260045260246000fd5b7f4e487b7100000000000000000000000000000000000000000000000000000000600052604160045260246000fd5b6000601f19601f8301169050919050565b61097e806200037f6000396000f3fe608060405234801561001057600080fd5b50600436106100625760003560e01c806360fd1c4f1461006757806379ba5097146100835780638da5cb5b1461008d578063d4ee1d90146100ab578063e21f37ce146100c9578063f2fde38b146100e7575b600080fd5b610081600480360381019061007c91906105db565b610103565b005b61008b6101ad565b005b6100956102e4565b6040516100a291906106aa565b60405180910390f35b6100b361030a565b6040516100c091906106aa565b60405180910390f35b6100d1610330565b6040516100de91906106c5565b60405180910390f35b61010160048036038101906100fc91906105b2565b6103be565b005b3373ffffffffffffffffffffffffffffffffffffffff16600160009054906101000a900473ffffffffffffffffffffffffffffffffffffffff1673ffffffffffffffffffffffffffffffffffffffff1614610193576040517f08c379a000000000000000000000000000000000000000000000000000000000815260040161018a906106e7565b60405180910390fd5b80600090805190602001906101a9929190610492565b5050565b600260009054906101000a900473ffffffffffffffffffffffffffffffffffffffff1673ffffffffffffffffffffffffffffffffffffffff163373ffffffffffffffffffffffffffffffffffffffff161461023d576040517f08c379a000000000000000000000000000000000000000000000000000000000815260040161023490610707565b60405180910390fd5b600260009054906101000a900473ffffffffffffffffffffffffffffffffffffffff16600160006101000a81548173ffffffffffffffffffffffffffffffffffffffff021916908373ffffffffffffffffffffffffffffffffffffffff1602179055506000600260006101000a81548173ffffffffffffffffffffffffffffffffffffffff021916908373ffffffffffffffffffffffffffffffffffffffff160217905550565b600160009054906101000a900473ffffffffffffffffffffffffffffffffffffffff1681565b600260009054906101000a900473ffffffffffffffffffffffffffffffffffffffff1681565b6000805461033d9061080d565b80601f01602080910402602001604051908101604052809291908181526020018280546103699061080d565b80156103b65780601f1061038b576101008083540402835291602001916103b6565b820191906000526020600020905b81548152906001019060200180831161039957829003601f168201915b505050505081565b3373ffffffffffffffffffffffffffffffffffffffff16600160009054906101000a900473ffffffffffffffffffffffffffffffffffffffff1673ffffffffffffffffffffffffffffffffffffffff161461044e576040517f08c379a0000000000000000000000000000000000000000000000000000000008152600401610445906106e7565b60405180910390fd5b80600260006101000a81548173ffffffffffffffffffffffffffffffffffffffff021916908373ffffffffffffffffffffffffffffffffffffffff16021790555050565b82805461049e9061080d565b90600052602060002090601f0160209004810192826104c05760008555610507565b82601f106104d957805160ff1916838001178555610507565b82800160010185558215610507579182015b828111156105065782518255916020019190600101906104eb565b5b5090506105149190610518565b5090565b5b80821115610531576000816000905550600101610519565b5090565b60006105486105438461074c565b610727565b90508281526020810184848401111561056057600080fd5b61056b8482856107cb565b509392505050565b60008135905061058281610931565b92915050565b600082601f83011261059957600080fd5b81356105a9848260208601610535565b91505092915050565b6000602082840312156105c457600080fd5b60006105d284828501610573565b91505092915050565b6000602082840312156105ed57600080fd5b600082013567ffffffffffffffff81111561060757600080fd5b61061384828501610588565b91505092915050565b61062581610799565b82525050565b60006106368261077d565b6106408185610788565b93506106508185602086016107da565b610659816108ce565b840191505092915050565b6000610671601c83610788565b915061067c826108df565b602082019050919050565b6000610694602083610788565b915061069f82610908565b602082019050919050565b60006020820190506106bf600083018461061c565b92915050565b600060208201905081810360008301526106df818461062b565b905092915050565b6000602082019050818103600083015261070081610664565b9050919050565b6000602082019050818103600083015261072081610687565b9050919050565b6000610731610742565b905061073d828261083f565b919050565b6000604051905090565b600067ffffffffffffffff8211156107675761076661089f565b5b610770826108ce565b9050602081019050919050565b600081519050919050565b600082825260208201905092915050565b60006107a4826107ab565b9050919050565b600073ffffffffffffffffffffffffffffffffffffffff82169050919050565b82818337600083830152505050565b60005b838110156107f85780820151818401526020810190506107dd565b83811115610807576000848401525b50505050565b6000600282049050600182168061082557607f821691505b6020821081141561083957610838610870565b5b50919050565b610848826108ce565b810181811067ffffffffffffffff821117156108675761086661089f565b5b80604052505050565b7f4e487b7100000000000000000000000000000000000000000000000000000000600052602260045260246000fd5b7f4e487b7100000000000000000000000000000000000000000000000000000000600052604160045260246000fd5b6000601f19601f8301169050919050565b7f4f6e6c79206f776e65722063616e2063616c6c2066756e6374696f6e00000000600082015250565b7f4f6e6c79206e6577206f776e65722063616e2063616c6c2066756e6374696f6e600082015250565b61093a81610799565b811461094557600080fd5b5056fea26469706673582212204e27189c1b2741eadc76293eb83e186ccd674b59f73cb0c81a43f7b38027009e64736f6c63430008040033",
  "linkReferences": {},
  "deployedLinkReferences": {}
}